:060000000A128A110C280F
:10000800FE00030EF5000A08F6000A128A11092AF2
:100018000A128A110F28F701F801F901FA01830180
:100028000A128A11ED2A8312031320082104031DE2
:100038001E281F282628C3309F0583160317080883
:10004800013888008312031320032104031D2D287F
:100058002E2837281F08C33904389F008316031732
:10006800080802388800023083120313200621048E
:10007800031D3F28402849281F08C33908389F0016
:100088008316031708080438880003308312031303
:1000980020062104031D512852285B281F08C33954
:1000A8000C389F00831603170808083888000430A6
:1000B8008312031320062104031D632864286D2876
:1000C8001F08C33910389F00831603170808103813
:1000D800880005308312031320062104031D7528A8
:1000E80076287F281F08C33914389F008316031702
:1000F80008082038880006308312031320062104DC
:10010800031D8728882891281F08C33918389F009D
:100118008316031708084038880007308312031332
:1001280020062104031D99289A28A3281F08C339EB
:100138001C389F0083160317080880388800083089
:100148008312031320062104031DAB28AC28B5280D
:100158001F08C33920389F00831603170908013880
:10016800890009308312031320062104031DBD28CA
:10017800BE28C7281F08C33924389F0083160317D1
:100188000908023889000A30831203132006210463
:10019800031DCF28D028D9281F08C33928389F0025
:1001A800831603170908043889000B3083120313D8
:1001B80020062104031DE128E228EB281F08C33983
:1001C8002C389F00831603170908083889000C305B
:1001D8008312031320062104031DF328F428FD28A5
:1001E8001F08C33930389F008316031709081038D1
:1001F80089000D308312031320062104031D0529ED
:1002080006290F291F08C33934389F00831603179E
:10021800090820388900080070087104031D152991
:1002280016291F29C330831203139F05831603174A
:1002380008080138880070037104031D2429252942
:100248003029831203131F08C33904389F0083160B
:100258000317080802388800023070067104031D6D
:10026800362937294229831203131F08C33908384E
:100278009F008316031708080438880003307006A7
:100288007104031D482949295429831203131F089F
:10029800C3390C389F0083160317080808388800EC
:1002A800043070067104031D5A295B2966298312DC
:1002B80003131F08C33910389F0083160317080853
:1002C80010388800053070067104031D6C296D29EB
:1002D8007829831203131F08C33914389F00831623
:1002E8000317080820388800063070067104031DBB
:1002F8007E297F298A29831203131F08C3391838D6
:100308009F008316031708084038880007307006D6
:100318007104031D902991299C29831203131F0836
:10032800C3391C389F0083160317080880388800D3
:10033800083070067104031DA229A329AE2983126F
:1003480003131F08C33920389F00831603170908B1
:1003580001388900093070067104031DB429B529D4
:10036800C029831203131F08C33924389F0083163A
:1003780003170908023889000A3070067104031D42
:10038800C629C729D229831203131F08C33928385D
:100398009F00831603170908043889000B3070067C
:1003A8007104031DD829D929E429831203131F08CE
:1003B800C3392C389F0083160317090808388900A9
:1003C8000C3070067104031DEA29EB29F629831203
:1003D80003131F08C33930389F0083160317090811
:1003E800103889000D3070067104031DFC29FD29A1
:1003F800082A831203131F08C33934389F00831651
:1004080003170908203889000800831203130C1FFA
:100418000E2A0F2A212A0A128A1107230A128A1180
:100428007008F9000030F000F1000A128A1110215A
:100438000A128A11831203130C138C1D242A252AED
:10044800462A0A128A1111230A128A11FA007A031B
:10045800031D2F2A302A372A78080A128A112123E5
:100468000A128A11432A03307A06031D3C2A3D2AC0
:10047800432A79080A128A1121230A128A1183123F
:1004880003138C110B1C492A4A2A722A0B10861B4B
:100498004E2A4F2A512AF701F70A861F542A552A4D
:1004A8005F2A7703031D592A5A2A5F2A0130F4006C
:1004B8007408F807F701061B622A632A652A0230C6
:1004C800F700061F682A692A722A02307706031D78
:1004D8006E2A6F2A722A0130F802F70176088A001C
:1004E800750E8300FE0E7E0E09008316031708148E
:1004F80008128901831603138516861706178801C3
:100508008312031386018801831603138113961738
:100518001617951715178B170B178B150B100C172C
:10052800831203138C11831603138C150F088F394C
:1005380060388F000F14803083120313A000A101CC
:10054800A20124300A128A11CF220A128A11080045
:10055800831603130C17831203130C139F131F170F
:10056800831603139F121F129F138312031323086A
:10057800A1002208A0000A128A1117200A128A1163
:10058800831203131F14203083120313A400A40B37
:10059800CB2A0000080083120313A3008316031359
:1005A800871283120313231DDA2ADB2AE12A220881
:1005B8008316031394008715E72A2008220483165C
:1005C8000313940087118312031323082104940052
:1005D80008000A128A1179220A128A11003083123D
:1005E8000313A200A3000A128A11AC220A128A116C
:1005F800831203139F18012B022BFC2A9F14FC2A39
:100608000A128A110C28831203131E08F200F30140
:100618007208F0007308F10008000A128A111A2300
:100628000A128A118312031313080800831603138E
:10063800141C1F2B202B1A2B0800F00070088312A3
:06064800031393000800FB
:08400000FF3FFF3FFF3FFF3FC0
:04400E00D420FF3F7C
:00000001FF
