:060000000A128A110C280F
:10000800FE00030EF0000A08F1000A128A117E2F82
:100018000A128A110F2883132030840047300A12ED
:100028008A116F270A128A11A0308400C8300A1278
:100038008A116F270A128A1183010A128A11242849
:100048000A128A1198260A128A110A128A11DE24C3
:100058000A128A110A128A1159270A128A110730BC
:10006800F60001300A128A11E2260A128A111D309E
:10007800F5008030F6000A128A1173250A128A11D7
:10008800F601F60A01300A128A11E2260A128A11CA
:100098001930F5008030F6000A128A1173250A1209
:1000A8008A110E30F60001300A128A11E2260A126D
:1000B8008A112130F5008030F6000A128A11732562
:1000C8000A128A11831203130711C730831203130C
:1000D800DE006E28DE0B6D28712801300A128A11A5
:1000E80085270A128A110A128A1166270A128A11AA
:1000F80083120313B200C73083120313DE0084286F
:10010800DE0B832887288312031307150711C730CE
:1001180083120313DE009028DE0B8F289328033008
:100128000A128A1185270A128A110A128A11662769
:100138000A128A1183120313B000C7308312031303
:10014800DE00A628DE0BA528A928831203130715AD
:100158008710C73083120313DE00B228DE0BB128E4
:10016800B52802300A128A1185270A128A110A1242
:100178008A1166270A128A1183120313B100C73045
:1001880083120313DE00C828DE0BC728CB2883128E
:10019800031387140030CC00CD00FF30CE000030B0
:1001A800CF000030D000D1006430D2000030D3003E
:1001B80032080A128A112F260A128A11831203138F
:1001C8004D08AF004C08AE006430F8000030F9006C
:1001D8002F08F3002E08F2000530F4000030F50077
:1001E8000A128A11BD260A128A117308FB007208C6
:1001F800FA000A128A111A240A128A11790883123B
:100208000313AB007808AA000A30CC000030CD00F8
:100218000A30F8000030F9002F08F3002E08F20029
:100228000530F4000030F5000A128A11BD260A12C2
:100238008A117308FB007208FA000A128A111A243C
:100248000A128A11790883120313CF007808CE00A6
:100258000A128A1183240A128A11831203134D0881
:10026800A9004C08A8000A30CC000030CD002F08A7
:10027800F3002E08F2000530F4000030F5000A12F1
:100288008A11BD260A128A11730883120313CF003C
:100298007208CE000A128A1183240A128A11831264
:1002A80003134D08A7004C08A600F601F60A023011
:1002B8000A128A11E2260A128A110B3083120313DA
:1002C800CB002B08CD002A08CC002908CF0028082D
:1002D800CE002708D1002608D00033300A128A1130
:1002E8005A220A128A113330F5000030F6000A1239
:1002F8008A1173250A128A11003083120313CC0065
:10030800CD00FF30CE000030CF000030D000D1004B
:100318006430D2000030D30031080A128A112F2627
:100328000A128A11831203134D08AD004C08AC0061
:100338006430F8000030F9002D08F3002C08F200B2
:100348000530F4000030F5000A128A11BD260A12A1
:100358008A117308FB007208FA000A128A111A241B
:100368000A128A11790883120313A5007808A400D9
:100378000A30CC000030CD000A30F8000030F90017
:100388002D08F3002C08F2000530F4000030F500C9
:100398000A128A11BD260A128A117308FB00720814
:1003A800FA000A128A111A240A128A117908831289
:1003B8000313CF007808CE000A128A1183240A1288
:1003C8008A11831203134D08A3004C08A2000A30B7
:1003D800CC000030CD002D08F3002C08F2000530C9
:1003E800F4000030F5000A128A11BD260A128A119B
:1003F800730883120313CF007208CE000A128A1101
:1004080083240A128A11831203134D08A1004C0891
:10041800A0000730F60002300A128A11E2260A12FA
:100428008A110B3083120313CB002508CD00240852
:10043800CC002308CF002208CE002108D1002008D4
:10044800D000B4300A128A115A220A128A11B43022
:10045800F5000030F6000A128A1173250A128A1173
:100468000E30F60002300A128A11E2260A128A11A8
:10047800143083120313CB003008DE00DF015E085E
:10048800CC005F08CD00A0300A128A115A220A1245
:100498008A11A030F5000030F6000A128A1173257F
:1004A8000A128A1166280A128A110C288312031369
:1004B800DC004C30D500052C25305D060319652A73
:1004C800662A702A5C0884005D0883138000013066
:1004D800D2005208DC07052CDA01DB01D901792AA0
:1004E80059150130D2005208CB074B0884000A1274
:1004F8008A116E260A128A11D200D3015308003AD3
:100508000319872A8C2A5208303A0319742A8C2A2C
:100518004B0884000A128A116E260A128A110A12DE
:100528008A1147270A128A11031C9B2A9C2ADC2A53
:1005380083120313DA01DB010A30F2000030F30002
:10054800831203135B08F5005A08F4000A128A1193
:10055800BD260A128A11730883120313DB0072087E
:10056800DA004B0884000A128A116E260A128A11D0
:10057800D03ED200FF3003180030D3005208DA070B
:100588000318DB0A5308DB070130D2005208CB07F7
:100598004B0884000A128A116E260A128A110A125E
:1005A8008A1147270A128A110318DB2ADC2AA02A93
:1005B800013083120313CB07FF304B0784000A1264
:1005C8008A116E260A128A11DD00D200D30153085F
:1005D800003A0319F02A052C5208003A0319152C81
:1005E800643A0319FB2A0D3A0319FB2A052C55080E
:1005F800840083130008D700840A0008D80002305A
:10060800D2005208D507D81F0A2B0B2B142B033006
:10061800D2005208D904D709D809D70A0319D80A29
:10062800DD01DD0A5D08D2005207013E84000A128E
:100638008A116E260A128A11D3000A128A116E26AE
:100648000A128A11D40054085802031D2D2B53088E
:1006580057020318302B312B322B3C2B0130D200A0
:100668005208DD0705305D06031D3B2B3C2B162B7E
:100678005A085B040319412B422B4E2B59080339A6
:100688000319472B482B4E2BFF30DA070318DB0AD8
:10069800FF30DB075B08803A803C031D552B5A0866
:1006A8005D020318582B592B652B831203135D0821
:1006B800D200D3015208DA025308031CDB03DB0221
:1006C800692B83120313DA01DB01591D6C2B6D2B87
:1006D800982B590803390319722B732B7C2B5C0850
:1006E80084002D30831380000130D2005208DC07CB
:1006F8005A085B040319812B822BC22B5C088400E7
:100708003030831380000130D2005208DC07FF30FC
:10071800DA070318DB0AFF30DB075A085B04031DFE
:10072800962B972B822BC22B5A085B0403199D2BFF
:100738009E2BB32B5C08840020308313800001308B
:10074800D2005208DC07FF30DA070318DB0AFF3053
:10075800DB075A085B04031DB22BB32B9E2B5908E9
:1007680003390319B82BB92BC22B5C0884002D3030
:10077800831380000130D2005208DC075D08D600E0
:10078800FC2B0A30C7000030C8005608D2005207B8
:10079800013E84000A128A116E260A128A11F2009A
:1007A8000A128A116E260A128A11F3005808F500F7
:1007B8005708F4000A128A112F250A128A117308A1
:1007C80083120313CA007208C9000A128A11F3259A
:1007D8000A128A11831203134708303EDD005C08B1
:1007E80084005D08831380000130D2005208DC07C2
:1007F800FF30D2005208D607560A031D042C052CD8
:10080800C52B0130CB07FF304B0784000A128A1131
:100818006E260A128A11DD005D08031D142C152CA2
:10082800602A5C0884008313800108008312031384
:10083800C901F91F202C212C282CF809F909F80ADC
:100848000319F90AC901C90AFB1F2B2C2C2C352CBA
:10085800FA09FB09FA0A0319FB0A0130C70047081D
:10086800C906CA01CB017808790403193C2C3D2C30
:10087800742CC801C80A4B2C01300310F80DF90D6F
:10088800FF3E031D412C0130C7004708C807F91F68
:100898004E2C4F2C402C01300310CA0DCB0DFF3EBF
:1008A800031D502C79087B02031D5C2C78087A0202
:1008B800031C5F2C602C672C7808FA027908031C4B
:1008C800FB03FB024A1401300310F90CF80CFF3E3D
:1008D800031D682C0130C802031D732C742C4F2C87
:1008E80049080319782C792C7E2CCA09CB09CA0A25
:1008F8000319CB0A4B08F9004A08F80008008312CC
:100908000313D201CF1F892C8A2C912CCE09CF0931
:10091800CE0A0319CF0AD201D20ACD1F942C952CE6
:100928009A2CCC09CD09CC0A0319CD0A4C084D04E0
:1009380003199F2CA02CCF2CD101D10AAE2C013049
:100948000310CC0DCD0DFF3E031DA42C0130D000AB
:100958005008D107CD1FB12CB22CA32C4D084F0243
:10096800031DB82C4C084E02031CBB2CBC2CC22CFB
:100978004C08CE024D08031CCF03CF0201300310F0
:10098800CD0CCC0CFF3E031DC32C0130D102031D3E
:10099800CE2CCF2CB22C52080319D32CD42CD92C02
:1009A800CE09CF09CE0A0319CF0A4F08CD004E0849
:1009B800CC00080000300A128A11B5250A128A11E3
:1009C8001A30F700F830F600F60BE82CF70BE82C95
:1009D800000030300A128A1102270A128A110730E1
:1009E800F7007D30F600F60BF72CF70BF72C3030BC
:1009F8000A128A1102270A128A114230F600F60BEF
:100A0800032D000030300A128A1102270A128A11B7
:100A180038300A128A1102270A128A1108300A127B
:100A28008A1102270A128A1101300A128A11022732
:100A38000A128A1106300A128A1102270A128A112A
:100A48000C300A128A1102270A128A112130F60084
:100A5800F60B2C2D0800F701F8017208730403192E
:100A6800362D372D6E2DF901F90A452D0130031069
:100A7800F20DF30DFF3E031D3B2D0130F600760805
:100A8800F907F31F482D492D3A2D01300310F70DB2
:100A9800F80DFF3E031D4A2D73087502031D562DE0
:100AA80072087402031C592D5A2D612D7208F40224
:100AB8007308031CF503F502771401300310F30CD7
:100AC800F20CFF3E031D622D0130F902031D6D2D4E
:100AD8006E2D492D7808F3007708F2000800FA0116
:100AE800FB01982D7A087507F8007608F7000318B7
:100AF800F70AFA1F802DF7037708F900790883129F
:100B08000313FF00780884000A128A1164260A1267
:100B18008A110A128A1132270A128A110130FA0739
:100B28000318FB0A0030FB077A087507F8007608F7
:100B3800F7000318F70AFA1FA22DF7037708F90040
:100B4800790883120313FF00780884000A128A11B7
:100B580064260A128A11003A031DB32DB42D762D8E
:100B68000800F200721CB92DBA2DBE2D8312031392
:100B78000814C12D831203130810F21CC42DC52DAF
:100B8800C72D8814C82D8810721DCB2DCC2DCE2DC5
:100B98000815CF2D0811F21DD22DD32DD52D88156E
:100BA800D62D8811721ED92DDA2DDC2D0816DD2DD3
:100BB8000812F21EE02DE12DE32D8816E42D88128F
:100BC800721FE72DE82DEA2D0817EB2D0813F21FE9
:100BD800EE2DEF2DF12D8817F22D881308008312C2
:100BE8000313470848040319FA2DFB2D2A2EFB018D
:100BF800FB0A092E01300310C70DC80DFF3E031D67
:100C0800FF2D0130FA007A08FB07C81F0C2E0D2EA5
:100C1800FE2D48084A02031D132E47084902031CEB
:100C2800162E172E1D2E4708C9024808031CCA0392
:100C3800CA0201300310C80CC70CFF3E031D1E2E4C
:100C48000130FB02031D292E2A2E0D2E4A08C8004A
:100C58004908C700080083120313D5004C084E0248
:100C6800F8004D08031C4D0A4F02F9005508D4003E
:100C78004C085402F2004D090318013EF3005008D5
:100C88005202F4005108031C510A5302F5000A12DB
:100C98008A11BD260A128A117308FB007208FA002D
:100CA8000A128A111A240A128A118312031350088D
:100CB8007807CC0051080318510A7907CD000800BD
:100CC800FF1B6E2E83137F1883170008840A0319ED
:100CD800FF0A080006308A000408840A82070034E4
:100CE800013400340A34003464340034E834033402
:100CF80010342734253464342E34253464342534B0
:100D08006434563400342534303433346434003495
:100D1800533431343A340034533432343A340034AE
:100D2800533433343A340034831603178801890165
:100D38008316031386018710071188018312031392
:100D480087140715850186018701880189018316A3
:100D580003130F088F3960388F000F148030F200AA
:100D6800F301F40120300A128A111C270A128A1191
:100D78000800F601F701721CC22EC32EC92E740892
:100D8800F6070318F70A7508F70701300310F40D82
:100D9800F50DFF3E031DCA2E01300310F30CF20CB3
:100DA800FF3E031DD12E72087304031DDC2EDD2EB9
:100DB800BF2E7708F3007608F2000800F7007703E3
:100DC800031DE72EE82EF22E76087F3EF8007808FD
:100DD8000A128A1102270A128A11012F0230770695
:100DE800031DF72EF82E012F7608BF3EF80078086D
:100DF8000A128A1102270A128A110800F5008312C2
:100E08000313061075080A128A11B5250A128A11E9
:100E18008312031386140630F4003030F300F30B0A
:100E2800132FF40B132F00008312031386100800EE
:100E3800F500831603138712751D232F242F282FDF
:100E48007408940087152C2F720874049400871175
:100E5800750873048312031394000800F4008312C6
:100E68000313061474080A128A11B5250A128A1186
:100E78008312031386140D30F300F30B412F8312F2
:100E8800031386100800F300F2013A3073020318C6
:100E98004E2F4F2F572F30307302031C542F552FCE
:100EA800572FF201F20A720C080000300A128A1158
:100EB80002270A128A1101300A128A1102270A121D
:100EC8008A1108000A128A1177270A128A118312D6
:100ED80003131308080064008001840A0406031938
:100EE80000340406702F83160313141C7C2F7D2FE7
:100EF800772F080071088A00700E8300FE0E7E0EA0
:0E0F08000900F2007208831203139300080020
:08400000FF3FFF3FFF3FFF3FC0
:04400E00D420FF3F7C
:00000001FF
