:060000000A128A110C280F
:10000800FE00030EF4000A08F5000A128A113F29BF
:100018000A128A110F28F601F701F80183010A1262
:100028008A110F298312031320082104031D1D2898
:100038001E282528C3309F05831603170808013892
:1000480088008312031320032104031D2C282D2864
:1000580036281F08C33904389F0083160317080879
:100068000238880002308312031320062104031D7E
:100078003E283F2848281F08C33908389F008316A0
:100088000317080804388800033083120313200676
:100098002104031D502851285A281F08C3390C3839
:1000A8009F00831603170808083888000430831255
:1000B800031320062104031D622863286C281F08E7
:1000C800C33910389F0083160317080810388800B2
:1000D80005308312031320062104031D7428752894
:1000E8007E281F08C33914389F0083160317080891
:1000F8002038880006308312031320062104031DCC
:100108008628872890281F08C33918389F00831627
:1001180003170808403888000730831203132006A5
:100128002104031D98289928A2281F08C3391C38C0
:100138009F00831603170808803888000830831248
:10014800031320062104031DAA28AB28B4281F087E
:10015800C33920389F00831603170908013889001E
:1001680009308312031320062104031DBC28BD286F
:10017800C6281F08C33924389F00831603170908A7
:10018800023889000A308312031320062104031D54
:10019800CE28CF28D8281F08C33928389F008316AF
:1001A80003170908043889000B308312031320064B
:1001B8002104031DE028E128EA281F08C3392C3848
:1001C8009F00831603170908083889000C3083122A
:1001D800031320062104031DF228F328FC281F0816
:1001E800C33930389F00831603170908103889006F
:1001F8000D308312031320062104031D0429052949
:100208000E291F08C33934389F00831603170908BD
:100218002038890008000A128A11A6210A128A11B8
:10022800003083120313A200A3000A128A11652169
:100238000A128A11073083120313A6007C30A50026
:10024800A50B2429A60B24290000831203139F1849
:100258002E292F291E299F14413083120313A6002B
:10026800ED30A500A50B3629A60B36293B291E29FA
:100278000A128A110C28831203130C1F44294529DA
:1002880051290A128A11BF210A128A117108F7002E
:100298007008F600831203130C138C1D542955297A
:1002A8005E2976080A128A11C9210A128A11831254
:1002B80003138C1175088A00740E8300FE0E7E0EDF
:1002C8000900831603130C17831203130C139F13CF
:1002D8001F13831603139F121F129F1383120313F6
:1002E8002308A1002208A0000A128A1116200A1267
:1002F8008A11831203131F14203083120313A400DE
:10030800A40B84290000080083120313A30083169A
:100318000313871283120313231D932994299A29FF
:1003280022088316031394008715A02920082204A5
:1003380083160313940087118312031323082104DF
:100348009400080083160317880189018B170B177F
:10035800831203138C11831603138C1585168312CD
:100368000313A001A101A20124300A128A118821D5
:100378000A128A110800831203131E08F200F301FF
:100388007208F0007308F1000800F000700883128A
:06039800031393000800AE
:08400000FF3FFF3FFF3FFF3FC0
:04400E00D420FF3F7C
:00000001FF
