:060000000A128A110C280F
:10000800FE00030EF6000A08F7000A128A11082AF1
:100018000A128A110F28F801F901FA0183010A125C
:100028008A11B32A8312031320082104031D1D28F3
:100038001E282528C3309F05831603170808013892
:1000480088008312031320032104031D2C282D2864
:1000580036281F08C33904389F0083160317080879
:100068000238880002308312031320062104031D7E
:100078003E283F2848281F08C33908389F008316A0
:100088000317080804388800033083120313200676
:100098002104031D502851285A281F08C3390C3839
:1000A8009F00831603170808083888000430831255
:1000B800031320062104031D622863286C281F08E7
:1000C800C33910389F0083160317080810388800B2
:1000D80005308312031320062104031D7428752894
:1000E8007E281F08C33914389F0083160317080891
:1000F8002038880006308312031320062104031DCC
:100108008628872890281F08C33918389F00831627
:1001180003170808403888000730831203132006A5
:100128002104031D98289928A2281F08C3391C38C0
:100138009F00831603170808803888000830831248
:10014800031320062104031DAA28AB28B4281F087E
:10015800C33920389F00831603170908013889001E
:1001680009308312031320062104031DBC28BD286F
:10017800C6281F08C33924389F00831603170908A7
:10018800023889000A308312031320062104031D54
:10019800CE28CF28D8281F08C33928389F008316AF
:1001A80003170908043889000B308312031320064B
:1001B8002104031DE028E128EA281F08C3392C3848
:1001C8009F00831603170908083889000C3083122A
:1001D800031320062104031DF228F328FC281F0816
:1001E800C33930389F00831603170908103889006F
:1001F8000D308312031320062104031D0429052949
:100208000E291F08C33934389F00831603170908BD
:1002180020388900080070087104031D1429152965
:100228001E29C330831203139F058316031708087A
:100238000138880070037104031D232924292F29FC
:10024800831203131F08C33904389F00831603174A
:10025800080802388800023070067104031D352929
:1002680036294129831203131F08C33908389F0010
:1002780083160317080804388800033070067104D1
:10028800031D472948295329831203131F08C3391B
:100298000C389F00831603170808083888000430B4
:1002A80070067104031D59295A29652983120313FD
:1002B8001F08C33910389F00831603170808103821
:1002C8008800053070067104031D6B296C29772995
:1002D800831203131F08C33914389F0083160317AA
:1002E800080820388800063070067104031D7D292F
:1002F8007E298929831203131F08C33918389F00E0
:100308008316031708084038880007307006710400
:10031800031D8F2990299B29831203131F08C339B2
:100328001C389F0083160317080880388800083097
:1003380070067104031DA129A229AD298312031394
:100348001F08C33920389F0083160317090801388E
:100358008900093070067104031DB329B429BF2927
:10036800831203131F08C33924389F008316031709
:100378000908023889000A3070067104031DC5296E
:10038800C629D129831203131F08C33928389F00AF
:10039800831603170908043889000B3070067104A6
:1003A800031DD729D829E329831203131F08C3394A
:1003B8002C389F00831603170908083889000C3069
:1003C80070067104031DE929EA29F529831203132C
:1003D8001F08C33930389F008316031709081038DF
:1003E80089000D3070067104031DFB29FC29072ABA
:1003F800831203131F08C33934389F008316031769
:100408000908203889000800831203130C1F0D2ADD
:100418000E2A202A0A128A11CD220A128A1170087D
:10042800FA000030F000F1000A128A110F210A12B6
:100438008A11831203130C138C1D232A242A3F2AA2
:100448000A128A11D7220A128A11F400F5017408D7
:10045800F8007508F900023078067904031D352A7A
:10046800362A3F2A7A080A128A11E7220A128A11C2
:10047800831203138C1177088A00760E8300FE0E10
:100488007E0E0900831603170814081289018316C3
:10049800031385168617061788018312031386012E
:1004A80088018B170B17831603130C17831203137A
:1004B8008C11831603138C150F088F3960388F0041
:1004C8000F14803083120313A000A101A20124306D
:1004D8000A128A1195220A128A1108008316031338
:1004E8000C17831203130C139F131F178316031380
:1004F8009F121F129F13831203132308A1002208BF
:10050800A0000A128A1116200A128A1183120313F4
:100518001F14203083120313A400A40B912A000097
:10052800080083120313A300831603138712831290
:100538000313231DA02AA12AA72A2208831603131E
:1005480094008715AD2A200822048316031394000B
:1005580087118312031323082104940008000A1248
:100568008A1146220A128A11003083120313A2004C
:10057800A3000A128A1172220A128A118312031323
:100588009F18C72AC82AC22A9F14C22A0A128A1187
:100598000C28831203131E08F200F3017208F000FE
:1005A8007308F10008000A128A11E0220A128A115F
:1005B800831203131308080083160313141CE52A77
:1005C800E62AE02A0800F00070088312031393005B
:0205D800080019
:08400000FF3FFF3FFF3FFF3FC0
:04400E00D420FF3F7C
:00000001FF
