:060000000A128A110C280F
:10000800FE00030EF0000A08F1000A128A11A12C62
:100018000A128A110F2883120313B501B601B7011A
:1000280083010A128A11D82983120313B1002530DB
:10003800AA00C329253032060319232824282E288C
:10004800310884003208831380000130A700270894
:10005800B107C329AF01B001AE0137282E15013011
:10006800A7002708A407240884000A128A11D123AC
:100078000A128A11A700A8012808003A031945287E
:100088004A282708303A031932284A2824088400C5
:100098000A128A11D1230A128A110A128A117224A9
:1000A8000A128A11031C59285A289A288312031302
:1000B800AF01B0010A30F2000030F30083120313DD
:1000C8003008F5002F08F4000A128A11A2230A1238
:1000D8008A11730883120313B0007208AF00240852
:1000E80084000A128A11D1230A128A11D03EA7006D
:1000F800FF3003180030A8002708AF070318B00A1C
:100108002808B0070130A7002708A407240884009E
:100118000A128A11D1230A128A110A128A11722428
:100128000A128A11031899289A285E280130831226
:100138000313A407FF30240784000A128A11D1236D
:100148000A128A11B200A700A8012808003A031968
:10015800AE28C3292708003A0319D329643A03199A
:10016800B9280D3A0319B928C3292A08840083132A
:100178000008AC00840A0008AD000230A700270878
:10018800AA07AD1FC828C928D2280330A700270806
:10019800AE04AC09AD09AC0A0319AD0AB201B20A42
:1001A8003208A7002707013E84000A128A11D123CA
:1001B8000A128A11A8000A128A11D1230A128A1176
:1001C800A90029082D02031DEB2828082C02031872
:1001D800EE28EF28F028FA280130A7002708B207F0
:1001E80005303206031DF928FA28D4282F083004D0
:1001F8000319FF2800290C292E080339031905299A
:1002080006290C29FF30AF070318B00AFF30B007E2
:100218003008803A803C031D13292F083202031846
:10022800162917292329831203133208A700A801C6
:100238002708AF022808031CB003B002272983123D
:100248000313AF01B0012E1D2A292B2956292E0888
:1002580003390319302931293A29310884002D300E
:10026800831380000130A7002708B1072F08300446
:1002780003193F294029802931088400303083132D
:1002880080000130A7002708B107FF30AF07031827
:10029800B00AFF30B0072F083004031D5429552930
:1002A800402980292F08300403195B295C2971290A
:1002B800310884002030831380000130A70027080C
:1002C800B107FF30AF070318B00AFF30B0072F0897
:1002D8003004031D702971295C292E08033903197C
:1002E800762977298029310884002D3083138000EE
:1002F8000130A7002708B1073208AB00BA290A3035
:10030800A0000030A1002B08A7002707013E8400A9
:100318000A128A11D1230A128A11F2000A128A11CA
:10032800D1230A128A11F3002D08F5002C08F400D5
:100338000A128A11A2220A128A117308831203135D
:10034800A3007208A2000A128A1166230A128A11EF
:10035800831203132008303EB200310884003208AB
:10036800831380000130A7002708B107FF30A700DA
:100378002708AB072B0A031DC229C329832901308B
:10038800A407FF30240784000A128A11D1230A1215
:100398008A11B2003208031DD229D3291E28310838
:1003A80084008313800108000A128A11EA230A12C2
:1003B8008A110A128A1151220A128A110A128A1102
:1003C80084240A128A11F601F60A01300A128A11E7
:1003D8000D240A128A111030F5008030F6000A1236
:1003E8008A11E6220A128A11831203130711C730F1
:1003F80083120313B300002AB30BFF29032A8312C5
:10040800031306080A128A11A8240A128A110A126A
:100418008A1191240A128A1183120313B300B401BA
:100428003308B5003408B600F601F60A02300A129D
:100438008A110D240A128A110B3083120313A400A7
:100448003608A6003508A50037300A128A11182088
:100458000A128A113730F5000030F6000A128A11A4
:10046800E6220A128A11C73083120313B3003C2A0A
:10047800B30B3B2A3F2A8312031307150730831255
:100488000313B4007C30B300B30B482AB40B482ADA
:100498000000F8290A128A110C2800300A128A1161
:1004A80028230A128A111A30F700F830F600F60BE2
:1004B8005B2AF70B5B2A000030300A128A112D24C0
:1004C8000A128A110730F7007D30F600F60B6A2A07
:1004D800F70B6A2A30300A128A112D240A128A115F
:1004E8004230F600F60B762A000030300A128A11E4
:1004F8002D240A128A1138300A128A112D240A1260
:100508008A1108300A128A112D240A128A11013020
:100518000A128A112D240A128A1106300A128A1127
:100528002D240A128A110C300A128A112D240A125B
:100538008A112130F600F60B9F2A0800F701F8010E
:10054800720873040319A92AAA2AE12AF901F90AE7
:10055800B82A01300310F20DF30DFF3E031DAE2A39
:100568000130F6007608F907F31FBB2ABC2AAD2A2A
:1005780001300310F70DF80DFF3E031DBD2A730867
:100588007502031DC92A72087402031CCC2ACD2ADD
:10059800D42A7208F4027308031CF503F5027714D1
:1005A80001300310F30CF20CFF3E031DD52A013075
:1005B800F902031DE02AE12ABC2A7808F30077082B
:1005C800F2000800FA01FB010B2B7A087507F80006
:1005D8007608F7000318F70AFA1FF32AF7037708D3
:1005E800F900790883120313FF00780884000A12BF
:1005F8008A11C7230A128A110A128A115D240A1263
:100608008A110130FA070318FB0A0030FB077A0841
:100618007507F8007608F7000318F70AFA1F152B74
:10062800F7037708F900790883120313FF007808A5
:1006380084000A128A11C7230A128A11003A031D7C
:10064800262B272BE92A0800F200721C2C2B2D2BB5
:10065800312B831203130814342B8312031308104D
:10066800F21C372B382B3A2B88143B2B8810721D21
:100678003E2B3F2B412B0815422B0811F21D452B11
:10068800462B482B8815492B8811721E4C2B4D2B55
:100698004F2B0816502B0812F21E532B542B562B97
:1006A8008816572B8812721F5A2B5B2B5D2B081745
:1006B8005E2B0813F21F612B622B642B8817652BA6
:1006C80088130800831203132008210403196D2BD3
:1006D8006E2B9D2BFB01FB0A7C2B01300310A00D18
:1006E800A10DFF3E031D722B0130FA007A08FB07AB
:1006F800A11F7F2B802B712B21082302031D862B22
:1007080020082202031C892B8A2B902B2008A20286
:100718002108031CA303A30201300310A10CA00CA1
:10072800FF3E031D912B0130FB02031D9C2B9D2BCB
:10073800802B2308A1002208A0000800F601F70179
:10074800721CA72BA82BAE2B7408F6070318F70A00
:100758007508F70701300310F40DF50DFF3E031D72
:10076800AF2B01300310F30CF20CFF3E031DB62B28
:1007780072087304031DC12BC22BA42B7708F30046
:100788007608F2000800FF1BD12B83137F1883170C
:100798000008840A0319FF0A080003308A000408C5
:1007A800840A82070034013400340A340034643483
:1007B8000034E834033410342734253430343334E7
:1007C80064340034533431343A3400348316031714
:1007D8008801890183160313860107118801831292
:1007E8000313850186018701880189018B170B177F
:1007F800831603130F088F3960388F000F14F20126
:10080800F301F40120300A128A1147240A128A11CE
:100818000800F7007703031D122C132C1D2C7608F3
:100828007F3EF80078080A128A112D240A128A11CC
:100838002C2C02307706031D222C232C2C2C760816
:10084800BF3EF80078080A128A112D240A128A116C
:100858000800F50083120313061075080A128A119E
:1008680028230A128A118312031386140630F4000F
:100878003030F300F30B3E2CF40B3E2C00008312B7
:10088800031386100800F500831603138712751DDD
:100898004E2C4F2C532C740894008715572C720833
:1008A8007404940087117508730483120313940069
:1008B8000800F40083120313061474080A128A113C
:1008C80028230A128A118312031386140D30F300A9
:1008D800F30B6C2C8312031386100800F300F2014B
:1008E8003A3073020318792C7A2C822C3030730238
:1008F800031C7F2C802C822CF201F20A720C080057
:1009080000300A128A112D240A128A1101300A12A3
:100918008A112D240A128A1108000A128A119A24AF
:100928000A128A118312031313080800831603138B
:10093800141C9F2CA02C9A2C080071088A00700E99
:100948008300FE0E7E0E0900F20072088312031364
:040958009300080000
:08400000FF3FFF3FFF3FFF3FC0
:04400E00D420FF3F7C
:00000001FF
